:100000000C9466000C9400000C9400000C9400000A
:100010000C9400000C9400000C9400000C94000060
:100020000C9400000C9400000C9400000C94000050
:100030000C9400000C9400000C9400000C94000040
:100040000C9400000C9400000C9400000C94000030
:100050000C9400000C9400000C9400000C94000020
:100060000C9400000C9400000C9400000C94000010
:100070000C9400000C9400000C9400001027E8037E
:1000800064000A0001000010000110000100256456
:100090002563430025642563462000256425634BC2
:1000A000200054656D70657261747572613A00006C
:1000B00080C00D000002A2000D000D02A2000D0084
:1000C0001A02A20002005102B0000000F894EE27CC
:1000D000EFBBF1E0F5BFE5BF8DE0A2E0BB27ED93FC
:1000E0008A95E9F780E094E0A0E0B1E0ED93019714
:1000F000E9F7E2EBF0E085919591009761F0A59129
:10010000B59105901590BF01F00105900D920197F2
:10011000E1F7FB01F0CFE0E0EEBBEFEFEDBFE4E095
:10012000EEBFC0E0D2E00C94B0001A931A2FE12F7A
:10013000E066E0937C0083E48A95F1F7E0917A0031
:10014000E064E0937A00E0917A00E071E1F3E091FD
:100150007A00E061E0937A00E09179000C94AC03BE
:10016000E0E8E0936100E0E0E0936100E1B9E2B92A
:10017000E4B9E5B9E7B9E8B9E3E0EAB9E0E0EBB939
:10018000E4BDE5BDE6BDE7BDE8BDE0938000E093DA
:100190008100E0938500E0938400E0938700E09382
:1001A0008600E0938900E0938800E0938B00E09361
:1001B0008A00E093B600E093B000E093B100E093D2
:1001C000B200E093B300E093B400E0936E00E093DC
:1001D0006F00E0937000E0936900EDBBE09368006E
:1001E000E093C100E093C900E0E8E0BFE0E0E09305
:1001F0007F00E0937E00E0E6E0937C00E5EAE09398
:100200007A00E0E0E0937B00ECBDE093BC00A0E16D
:1002100079D2A0E08ADFF0E04DD3C4D3A0E0B0E013
:1002200080EA90E441D4B3D2BBD2EAE0F7ED63E2D6
:1002300071E488D4ACD2E7E2F2E0FA93EA93EEE814
:10024000F0E0FA93EA93B5D2BDD2AAD2E0E0F0E0B2
:1002500060E171E429D4DF01CB01E0E0F0E060EA85
:1002600070E470D4BBD2C3D2A0E0B0E080E092E4EE
:10027000CCD3B4D2E1E3F2E0FA93EA93E4E9F0E01C
:10028000FA93EA93B4D29ED294D2A3E3B3E988E876
:1002900093E4BBD3E0934D02F0934E0260934F0280
:1002A00070935002EBE3F2E0FA93EA93EBE9F0E0AB
:1002B000FA93EA93E0914D02F0914E0260914F0261
:1002C000709150027FD275D236D3EB35A0E0FA0799
:1002D00014F0589A01C058986CD22DD33A9714F460
:1002E000599A01C05998359B07C08AD2A0E0B2E064
:1002F0008CD2ABE3B2E00FC0349B07C081D2ADE03B
:10030000B2E083D2A1E3B2E006C07AD2AAE1B2E0C1
:100310007CD2A7E2B2E0E7D1A8EEB3E057D479CF20
:10032000FFCFA6D29D015E811296C9D23097E1F02F
:10033000D9011496C4D28F01309759F00230E0E011
:100340001E0760F0F80131978F01D9011496ED93E3
:10035000FC93D90112965ED231975083D901AFD266
:10036000FF230AF057D205C0D901EFEFFFEFED935D
:10037000FC9385D227960895BA93AA93269778D2AC
:1003800010E0AC85BD85E0E0F0E0ED93FC93EA89F8
:10039000FB893196EA8BFB8B3197E4912E2FE0306D
:1003A00009F409C1E12FE03031F4253211F411E0F4
:1003B00001C036D2FFC0E130A1F4253211F430D2B1
:1003C000F8C012E040E000E02D3211F401E0F2C08C
:1003D0002B3211F44BE2EEC0203211F440E2EAC0BD
:1003E00002C0E23039F450E013E0203311F4006829
:1003F000E1C003C0E33009F0DDC0203310F02A3340
:1004000008F007C0AAE05A9F502DE22FE0535E0F7C
:10041000D1C0E22FE33639F40AD2E889F989A48100
:10042000AA930BD2C6C0E33729F401D20CD296D1DD
:100430001E2F07C0E03749F4FAD105D29BD11E2FF9
:10044000086002600F7730E038C0E43611F0E9361A
:1004500011F4046002C0E53731F4ECE7F0E0EE831C
:10046000FF8315E00CC0E83511F4086003C0E837DD
:1004700009F09FC0E6E8F0E0EE83FF8314E002FF9E
:1004800015C0D5D1A889B9891496ED91FD91EA8757
:10049000FB87AB85AA2322F401D2EA87FB874DE2D2
:1004A000403011F01F5F01C00B7F07C0C0D1A88989
:1004B000B989149604D2EA87FB8700FD10C015178E
:1004C00070F407FF08C002FF04C00B7F242F1150F7
:1004D00001C020E301C020E2A3D15150F0CF312F61
:1004E00001FF16C0303099F003FF06C0EE81FF8196
:1004F0002591EE83FF8305C0AE81BF812D91AE8330
:10050000BF838ED1503009F051503150EBCF48C0ED
:1005100020E3EE81FF81D7D1E887F987EE81FF8163
:100520003296EE83FF83E885F985AA85BB85AE17F1
:10053000BF0750F02F5FA885B985EA85FB85EA1BC8
:10054000FB0BEA87FB87EFCF2A3328F003FF02C0BB
:10055000295F01C0295D04FD19C0213320F4A8855D
:10056000B985119709F409C0531710F000FF01C0B5
:1005700011C020E207FF0AC020E3006102FF06C0AD
:100580000B7F4A935AD1503009F0515049D1503025
:1005900009F051503150A885B985129708F0B8CFAD
:1005A00000FF07C0503029F05150E0E2EA9345D1F6
:1005B000F9CF10E0ECCEAC85BD85ED91FD915FD11A
:1005C00064960895FF92F82E269752D1FE015ED1CF
:1005D00046855785042E052A19F4EFEFFFEF1FC05B
:1005E000DE01189657D18D0148875987E0E0EA87E8
:1005F000EB87DE011C964ED1ED91FD91FA93EA93C3
:100600001A930A93E1E9F1E0FA93EA93DE011C966A
:10061000B3DE9F01A885B985E0E0EC93F9012FD105
:100620002C96FF9008951A931A2F14FF02C02B9A4C
:1006300001C02B9815FF02C02C9A01C02C9816FF00
:1006400002C02D9A01C02D9817FF02C02E9A01C03A
:100650002E9881E28A95F1F72A9A81E28A95F1F73C
:100660002A9881E28A95F1F777C0AA93A881DBDF07
:10067000E881E295E883A881D6DF8AEF90E00197D0
:10068000F1F7219608951A930A931A2F0A81E12F00
:10069000F0E0EF5AFD4FE081E00FAE2FE6DF402E95
:1006A000312E1981088123960895A2E0D6D0ACE0BE
:1006B000DCDFA1E0D2D0E0E03E2E4E2E08951A936A
:1006C0001A2F1A3011F0461440F0E0E0EA93339408
:1006D000A32DD9DF1A3009F43FC04394289AA12FE3
:1006E000C4DF289839C0C6D09D01D9012F5F3F4F84
:1006F000EC911E2FE03019F0A12FE1DFF6CFC1D031
:10070000249608951A931A2F239A249A259A269AA2
:10071000229A209A219A2A9828982998612EE12FC6
:10072000E058E0935302E12FE054E0935402A4E137
:10073000B0E04CD296D095D094D0A0E274DF84EF94
:1007400091E00197F1F7A8E290DFA4E08EDFA5E841
:100750008CDFA6E08ADFA9DF19910895BA93AA93E6
:10076000A991B991EE27FF276D91662311F031967B
:10077000FBCF0895BA93AA93AA27BB27E991F991D1
:100780000590002011F01196FBCFFD010895E09334
:100790004502F09346026093470270934802089521
:1007A000A0914502B0914602809147029091480283
:1007B0000895E0914502F0914602609147027091E0
:1007C00048020895B8D076D082D0EFEDF0E060E036
:1007D00070E07DD088E0F6DE2C960895E093490223
:1007E000F0934A0260934B0270934C020895E0919B
:1007F0004902F0914A0260914B0270914C020895B7
:1008000054DFE0E0EA93A0E03ECF6DDFE0E0EA9362
:10081000A1E039CFED91FD913196FE93EE930895CD
:100820002A93AD85BE85EF85F88909950895E889F5
:10083000F9893497E88BF98B0895AD85BE85EF85EE
:10084000F88909950895A889B9891496ED91FD91C3
:10085000EE83FF83AE81BF81089507DFA3E0B0E0A0
:10086000B5C1A0E3E0DE84EF91E00197F1F70895D0
:100870005A934A933A932A931A930A9308955D815F
:100880004C813B812A811981088108950024EF0D54
:10089000F01D08950024AF0DB01D0895F195E19568
:1008A000F0400895F09560957095E195FF4F6F4F7A
:1008B0007F4F08956F2F660F660B762F0895ED9189
:1008C000FC91119708950590F491E02D08957A9385
:1008D0006A93FA93EA930895552342F4503811F439
:1008E000E0FF04C03196691F791F6BF050E857276D
:1008F00011F45F93C8C05F3F31F0660F000C57954D
:100900006795752F08955F9300200AF0C7C0C0C097
:1009100050E8192E1522880F991F9527550F879596
:1009200050E8072E0522660F771F7527550F67952C
:100930000895689401C0E8945F93F2DF703818F06E
:100940007F3F08F4A0C056E1571BAAF451955830D8
:100950000EF4593030F0EFEFFFEF6FEF7FE777F9EC
:100960001AC077275523B9F0EE0FFF1F661F771FB8
:100970005A95D1F710C07727583028F0EF2FF62F6F
:10098000672F5850F9CF552331F076956795F79535
:10099000E7955A95D1F700200AF484DF5F91089516
:1009A000689401C0E894309760407040B1F0002432
:1009B00026F0772312F4009475DF172E7EE11120C4
:1009C00032F07A95EE0FFF1F661F111CF9CFEF2F43
:1009D000F62F612D5F938ADF5F9108954F93AF01EA
:1009E000FD01DA01AB01BC01CA01402D012C142E1E
:1009F0004F910895EA0FFB1F681F0895E095F09549
:100A00006095EF5FFF4F6F4F08955F9381DF9038E0
:100A100039F1703821F1572F591B2BF112F4DEDF19
:100A2000FACF583118F0AA27BB278827583028F06A
:100A3000AB2FB82F88275850F9CF552329F086952A
:100A4000B795A7955A95D9F7502D512572F0D2DF59
:100A500038F46795F795E795739513F41FC0BEDFDB
:100A600045DF5F910895D8F7FBCFEA1BFB0B680BBE
:100A700051F010F40094C2DF662392F3EE0FFF1FD3
:100A8000661F7A95CBF7EE27FF27BF015F91089588
:100A9000EFEFFFEF6FE77FEF5F910895EFEFFFEF6D
:100AA0006FE77FE75F9108955F9332DF703859F306
:100AB000903849F301240894791F23F424F300208B
:100AC0003AF3ECCF0F921F932F933F934F9311273D
:100AD00022279927689FA0018F9F302D410D591F14
:100AE0006B9F300D411D591F8E9F27D0BF9F25D072
:100AF0006A9F23D0BE9F1DD0AF9F1BD0AE9F110D0C
:100B0000291F391F491F591FE32FF42F652F522F1B
:100B10004F913F912F911F910F9066232AF0550F0F
:100B2000EE1FFF1F661F02C073954BF2D5DE5F916B
:100B30000895100D211D391F02C0200D311D491FC0
:100B4000591F08955F93E4DE703821F411200AF4F0
:100B50009FCFA4CF903809F496CF01240894970B27
:100B60001BF4D4F30020F3CF792F1F932F933F93DF
:100B70004F931124112722273327A90190E2AE17A2
:100B8000BF078607410730F0AE1BBF0B860B410B3A
:100B9000089401C08894551F221F331F111CAA1FDF
:100BA000BB1F881F441F9A9551F7F901612D4F9182
:100BB0003F912F911F91662332F0550FEE1FFF1FBB
:100BC000661F7A954BF288DE5F910895109639F092
:100BD000A89588E893E10197F1F71197C9F708956F
:00000001FF
